{
  "contractName": "MyContract",
  "abi": [
    {
      "inputs": [
        {
          "internalType": "bytes32",
          "name": "",
          "type": "bytes32"
        }
      ],
      "name": "dataMap",
      "outputs": [
        {
          "internalType": "string",
          "name": "time",
          "type": "string"
        },
        {
          "internalType": "string",
          "name": "X",
          "type": "string"
        },
        {
          "internalType": "string",
          "name": "Y",
          "type": "string"
        },
        {
          "internalType": "string",
          "name": "Z",
          "type": "string"
        },
        {
          "internalType": "string",
          "name": "V",
          "type": "string"
        },
        {
          "internalType": "string",
          "name": "MAx",
          "type": "string"
        },
        {
          "internalType": "string",
          "name": "MAy",
          "type": "string"
        },
        {
          "internalType": "string",
          "name": "MAz",
          "type": "string"
        },
        {
          "internalType": "string",
          "name": "MAv",
          "type": "string"
        }
      ],
      "stateMutability": "view",
      "type": "function",
      "constant": true
    },
    {
      "inputs": [
        {
          "internalType": "string",
          "name": "time",
          "type": "string"
        },
        {
          "internalType": "string",
          "name": "X",
          "type": "string"
        },
        {
          "internalType": "string",
          "name": "Y",
          "type": "string"
        },
        {
          "internalType": "string",
          "name": "Z",
          "type": "string"
        },
        {
          "internalType": "string",
          "name": "V",
          "type": "string"
        },
        {
          "internalType": "string",
          "name": "MAx",
          "type": "string"
        },
        {
          "internalType": "string",
          "name": "MAy",
          "type": "string"
        },
        {
          "internalType": "string",
          "name": "MAz",
          "type": "string"
        },
        {
          "internalType": "string",
          "name": "MAv",
          "type": "string"
        }
      ],
      "name": "addData",
      "outputs": [],
      "stateMutability": "nonpayable",
      "type": "function"
    }
  ],
  "bytecode": "0x608060405234801561001057600080fd5b50610faf806100206000396000f3fe608060405234801561001057600080fd5b50600436106100365760003560e01c806346bcad621461003b5780637a6ee1f314610073575b600080fd5b61005560048036038101906100509190610752565b61008f565b60405161006a9998979695949392919061080f565b60405180910390f35b61008d60048036038101906100889190610a10565b6105a5565b005b60006020528060005260406000206000915090508060000180546100b290610c05565b80601f01602080910402602001604051908101604052809291908181526020018280546100de90610c05565b801561012b5780601f106101005761010080835404028352916020019161012b565b820191906000526020600020905b81548152906001019060200180831161010e57829003601f168201915b50505050509080600101805461014090610c05565b80601f016020809104026020016040519081016040528092919081815260200182805461016c90610c05565b80156101b95780601f1061018e576101008083540402835291602001916101b9565b820191906000526020600020905b81548152906001019060200180831161019c57829003601f168201915b5050505050908060020180546101ce90610c05565b80601f01602080910402602001604051908101604052809291908181526020018280546101fa90610c05565b80156102475780601f1061021c57610100808354040283529160200191610247565b820191906000526020600020905b81548152906001019060200180831161022a57829003601f168201915b50505050509080600301805461025c90610c05565b80601f016020809104026020016040519081016040528092919081815260200182805461028890610c05565b80156102d55780601f106102aa576101008083540402835291602001916102d5565b820191906000526020600020905b8154815290600101906020018083116102b857829003601f168201915b5050505050908060040180546102ea90610c05565b80601f016020809104026020016040519081016040528092919081815260200182805461031690610c05565b80156103635780601f1061033857610100808354040283529160200191610363565b820191906000526020600020905b81548152906001019060200180831161034657829003601f168201915b50505050509080600501805461037890610c05565b80601f01602080910402602001604051908101604052809291908181526020018280546103a490610c05565b80156103f15780601f106103c6576101008083540402835291602001916103f1565b820191906000526020600020905b8154815290600101906020018083116103d457829003601f168201915b50505050509080600601805461040690610c05565b80601f016020809104026020016040519081016040528092919081815260200182805461043290610c05565b801561047f5780601f106104545761010080835404028352916020019161047f565b820191906000526020600020905b81548152906001019060200180831161046257829003601f168201915b50505050509080600701805461049490610c05565b80601f01602080910402602001604051908101604052809291908181526020018280546104c090610c05565b801561050d5780601f106104e25761010080835404028352916020019161050d565b820191906000526020600020905b8154815290600101906020018083116104f057829003601f168201915b50505050509080600801805461052290610c05565b80601f016020809104026020016040519081016040528092919081815260200182805461054e90610c05565b801561059b5780601f106105705761010080835404028352916020019161059b565b820191906000526020600020905b81548152906001019060200180831161057e57829003601f168201915b5050505050905089565b60008989898989898989896040516020016105c899989796959493929190610c72565b6040516020818303038152906040528051906020012090506040518061012001604052808b81526020018a81526020018981526020018881526020018781526020018681526020018581526020018481526020018381525060008083815260200190815260200160002060008201518160000190816106479190610ea7565b50602082015181600101908161065d9190610ea7565b5060408201518160020190816106739190610ea7565b5060608201518160030190816106899190610ea7565b50608082015181600401908161069f9190610ea7565b5060a08201518160050190816106b59190610ea7565b5060c08201518160060190816106cb9190610ea7565b5060e08201518160070190816106e19190610ea7565b506101008201518160080190816106f89190610ea7565b5090505050505050505050505050565b6000604051905090565b600080fd5b600080fd5b6000819050919050565b61072f8161071c565b811461073a57600080fd5b50565b60008135905061074c81610726565b92915050565b60006020828403121561076857610767610712565b5b60006107768482850161073d565b91505092915050565b600081519050919050565b600082825260208201905092915050565b60005b838110156107b957808201518184015260208101905061079e565b60008484015250505050565b6000601f19601f8301169050919050565b60006107e18261077f565b6107eb818561078a565b93506107fb81856020860161079b565b610804816107c5565b840191505092915050565b600061012082019050818103600083015261082a818c6107d6565b9050818103602083015261083e818b6107d6565b90508181036040830152610852818a6107d6565b9050818103606083015261086681896107d6565b9050818103608083015261087a81886107d6565b905081810360a083015261088e81876107d6565b905081810360c08301526108a281866107d6565b905081810360e08301526108b681856107d6565b90508181036101008301526108cb81846107d6565b90509a9950505050505050505050565b600080fd5b600080fd5b7f4e487b7100000000000000000000000000000000000000000000000000000000600052604160045260246000fd5b61091d826107c5565b810181811067ffffffffffffffff8211171561093c5761093b6108e5565b5b80604052505050565b600061094f610708565b905061095b8282610914565b919050565b600067ffffffffffffffff82111561097b5761097a6108e5565b5b610984826107c5565b9050602081019050919050565b82818337600083830152505050565b60006109b36109ae84610960565b610945565b9050828152602081018484840111156109cf576109ce6108e0565b5b6109da848285610991565b509392505050565b600082601f8301126109f7576109f66108db565b5b8135610a078482602086016109a0565b91505092915050565b60008060008060008060008060006101208a8c031215610a3357610a32610712565b5b60008a013567ffffffffffffffff811115610a5157610a50610717565b5b610a5d8c828d016109e2565b99505060208a013567ffffffffffffffff811115610a7e57610a7d610717565b5b610a8a8c828d016109e2565b98505060408a013567ffffffffffffffff811115610aab57610aaa610717565b5b610ab78c828d016109e2565b97505060608a013567ffffffffffffffff811115610ad857610ad7610717565b5b610ae48c828d016109e2565b96505060808a013567ffffffffffffffff811115610b0557610b04610717565b5b610b118c828d016109e2565b95505060a08a013567ffffffffffffffff811115610b3257610b31610717565b5b610b3e8c828d016109e2565b94505060c08a013567ffffffffffffffff811115610b5f57610b5e610717565b5b610b6b8c828d016109e2565b93505060e08a013567ffffffffffffffff811115610b8c57610b8b610717565b5b610b988c828d016109e2565b9250506101008a013567ffffffffffffffff811115610bba57610bb9610717565b5b610bc68c828d016109e2565b9150509295985092959850929598565b7f4e487b7100000000000000000000000000000000000000000000000000000000600052602260045260246000fd5b60006002820490506001821680610c1d57607f821691505b602082108103610c3057610c2f610bd6565b5b50919050565b600081905092915050565b6000610c4c8261077f565b610c568185610c36565b9350610c6681856020860161079b565b80840191505092915050565b6000610c7e828c610c41565b9150610c8a828b610c41565b9150610c96828a610c41565b9150610ca28289610c41565b9150610cae8288610c41565b9150610cba8287610c41565b9150610cc68286610c41565b9150610cd28285610c41565b9150610cde8284610c41565b91508190509a9950505050505050505050565b60008190508160005260206000209050919050565b60006020601f8301049050919050565b600082821b905092915050565b600060088302610d537fffffffffffffffffffffffffffffffffffffffffffffffffffffffffffffffff82610d16565b610d5d8683610d16565b95508019841693508086168417925050509392505050565b6000819050919050565b6000819050919050565b6000610da4610d9f610d9a84610d75565b610d7f565b610d75565b9050919050565b6000819050919050565b610dbe83610d89565b610dd2610dca82610dab565b848454610d23565b825550505050565b600090565b610de7610dda565b610df2818484610db5565b505050565b5b81811015610e1657610e0b600082610ddf565b600181019050610df8565b5050565b601f821115610e5b57610e2c81610cf1565b610e3584610d06565b81016020851015610e44578190505b610e58610e5085610d06565b830182610df7565b50505b505050565b600082821c905092915050565b6000610e7e60001984600802610e60565b1980831691505092915050565b6000610e978383610e6d565b9150826002028217905092915050565b610eb08261077f565b67ffffffffffffffff811115610ec957610ec86108e5565b5b610ed38254610c05565b610ede828285610e1a565b600060209050601f831160018114610f115760008415610eff578287015190505b610f098582610e8b565b865550610f71565b601f198416610f1f86610cf1565b60005b82811015610f4757848901518255600182019150602085019450602081019050610f22565b86831015610f645784890151610f60601f891682610e6d565b8355505b6001600288020188555050505b50505050505056fea264697066735822122047956a82e4877edb0e7701137d531cf7a70c113bcbad768ebb0b8200593fd1c264736f6c63430008130033",
  "immutableReferences": {},
  "source": "// SPDX-License-Identifier: MIT\r\npragma solidity ^0.8.0;\r\n\r\ncontract MyContract {\r\nstruct Data {\r\nstring time;\r\nstring X;\r\nstring Y;\r\nstring Z;\r\nstring V;\r\nstring MAx;\r\nstring MAy;\r\nstring MAz;\r\nstring MAv;\r\n}\r\nmapping(bytes32 => Data) public dataMap;\r\n\r\nfunction addData(string memory time, string memory X, string memory Y, string memory Z, string memory V, string memory MAx, string memory MAy, string memory MAz, string memory MAv) public {\r\n    bytes32 id = keccak256(abi.encodePacked(time, X, Y, Z, V, MAx, MAy, MAz, MAv));\r\n    dataMap[id] = Data(time, X, Y, Z, V, MAx, MAy, MAz, MAv);\r\n}\r\n}",
  "sourcePath": "C:\\Users\\Pranav Bawgikar\\Downloads\\Attempt1\\contracts\\MyContract.sol",
  "compiler": {
    "name": "solc",
    "version": "0.8.19+commit.7dd6d404.Emscripten.clang"
  },
  "schemaVersion": "3.4.13",
  "updatedAt": "2023-05-18T09:05:16.565Z",
  "networkType": "ethereum",
  "devdoc": {
    "kind": "dev",
    "methods": {},
    "version": 1
  },
  "userdoc": {
    "kind": "user",
    "methods": {},
    "version": 1
  }
}